{
  "_format": "hh-sol-artifact-1",
  "contractName": "MarginAccount",
  "sourceName": "contracts/MarginAccount.sol",
  "abi": [
    {
      "inputs": [
        {
          "internalType": "address",
          "name": "_router",
          "type": "address"
        },
        {
          "internalType": "address",
          "name": "_feeCollector",
          "type": "address"
        },
        {
          "internalType": "address",
          "name": "_trustedForwarder",
          "type": "address"
        }
      ],
      "stateMutability": "nonpayable",
      "type": "constructor"
    },
    {
      "inputs": [],
      "name": "InsufficientBalance",
      "type": "error"
    },
    {
      "inputs": [],
      "name": "NativeAssetMismatch",
      "type": "error"
    },
    {
      "inputs": [],
      "name": "NativeAssetTransferFail",
      "type": "error"
    },
    {
      "inputs": [],
      "name": "OnlyRouterAllowed",
      "type": "error"
    },
    {
      "inputs": [],
      "name": "OnlyVerifiedMarketsAllowed",
      "type": "error"
    },
    {
      "inputs": [],
      "name": "ZeroAddressNotAllowed",
      "type": "error"
    },
    {
      "anonymous": false,
      "inputs": [
        {
          "indexed": false,
          "internalType": "address",
          "name": "owner",
          "type": "address"
        },
        {
          "indexed": false,
          "internalType": "address",
          "name": "token",
          "type": "address"
        },
        {
          "indexed": false,
          "internalType": "uint256",
          "name": "amount",
          "type": "uint256"
        }
      ],
      "name": "Deposit",
      "type": "event"
    },
    {
      "anonymous": false,
      "inputs": [
        {
          "indexed": false,
          "internalType": "address",
          "name": "owner",
          "type": "address"
        },
        {
          "indexed": false,
          "internalType": "address",
          "name": "token",
          "type": "address"
        },
        {
          "indexed": false,
          "internalType": "uint256",
          "name": "amount",
          "type": "uint256"
        }
      ],
      "name": "Withdrawal",
      "type": "event"
    },
    {
      "inputs": [
        {
          "internalType": "bytes32",
          "name": "",
          "type": "bytes32"
        }
      ],
      "name": "balances",
      "outputs": [
        {
          "internalType": "uint256",
          "name": "",
          "type": "uint256"
        }
      ],
      "stateMutability": "view",
      "type": "function"
    },
    {
      "inputs": [
        {
          "internalType": "address[]",
          "name": "_tokens",
          "type": "address[]"
        }
      ],
      "name": "batchClaimMaxTokens",
      "outputs": [],
      "stateMutability": "nonpayable",
      "type": "function"
    },
    {
      "inputs": [
        {
          "internalType": "address",
          "name": "_assetA",
          "type": "address"
        },
        {
          "internalType": "uint256",
          "name": "_feeA",
          "type": "uint256"
        },
        {
          "internalType": "address",
          "name": "_assetB",
          "type": "address"
        },
        {
          "internalType": "uint256",
          "name": "_feeB",
          "type": "uint256"
        }
      ],
      "name": "creditFee",
      "outputs": [
        {
          "internalType": "bool",
          "name": "",
          "type": "bool"
        }
      ],
      "stateMutability": "nonpayable",
      "type": "function"
    },
    {
      "inputs": [
        {
          "internalType": "address",
          "name": "_user",
          "type": "address"
        },
        {
          "internalType": "address",
          "name": "_token",
          "type": "address"
        },
        {
          "internalType": "uint256",
          "name": "_amount",
          "type": "uint256"
        },
        {
          "internalType": "bool",
          "name": "_useMargin",
          "type": "bool"
        }
      ],
      "name": "creditUser",
      "outputs": [
        {
          "internalType": "bool",
          "name": "",
          "type": "bool"
        }
      ],
      "stateMutability": "nonpayable",
      "type": "function"
    },
    {
      "inputs": [
        {
          "internalType": "bytes",
          "name": "_encodedData",
          "type": "bytes"
        }
      ],
      "name": "creditUsersEncoded",
      "outputs": [
        {
          "internalType": "bool",
          "name": "",
          "type": "bool"
        }
      ],
      "stateMutability": "nonpayable",
      "type": "function"
    },
    {
      "inputs": [
        {
          "internalType": "address",
          "name": "_user",
          "type": "address"
        },
        {
          "internalType": "address",
          "name": "_token",
          "type": "address"
        },
        {
          "internalType": "uint256",
          "name": "_amount",
          "type": "uint256"
        }
      ],
      "name": "debitUser",
      "outputs": [],
      "stateMutability": "nonpayable",
      "type": "function"
    },
    {
      "inputs": [
        {
          "internalType": "address",
          "name": "_user",
          "type": "address"
        },
        {
          "internalType": "address",
          "name": "_token",
          "type": "address"
        },
        {
          "internalType": "uint256",
          "name": "_amount",
          "type": "uint256"
        }
      ],
      "name": "deposit",
      "outputs": [],
      "stateMutability": "payable",
      "type": "function"
    },
    {
      "inputs": [
        {
          "internalType": "address",
          "name": "_user",
          "type": "address"
        },
        {
          "internalType": "address",
          "name": "_token",
          "type": "address"
        }
      ],
      "name": "getBalance",
      "outputs": [
        {
          "internalType": "uint256",
          "name": "",
          "type": "uint256"
        }
      ],
      "stateMutability": "view",
      "type": "function"
    },
    {
      "inputs": [
        {
          "internalType": "address",
          "name": "forwarder",
          "type": "address"
        }
      ],
      "name": "isTrustedForwarder",
      "outputs": [
        {
          "internalType": "bool",
          "name": "",
          "type": "bool"
        }
      ],
      "stateMutability": "view",
      "type": "function"
    },
    {
      "inputs": [
        {
          "internalType": "address",
          "name": "_marketAddress",
          "type": "address"
        }
      ],
      "name": "updateMarkets",
      "outputs": [],
      "stateMutability": "nonpayable",
      "type": "function"
    },
    {
      "inputs": [
        {
          "internalType": "address",
          "name": "",
          "type": "address"
        }
      ],
      "name": "verifiedMarket",
      "outputs": [
        {
          "internalType": "bool",
          "name": "",
          "type": "bool"
        }
      ],
      "stateMutability": "view",
      "type": "function"
    },
    {
      "inputs": [
        {
          "internalType": "uint256",
          "name": "_amount",
          "type": "uint256"
        },
        {
          "internalType": "address",
          "name": "_token",
          "type": "address"
        }
      ],
      "name": "withdraw",
      "outputs": [],
      "stateMutability": "nonpayable",
      "type": "function"
    },
    {
      "stateMutability": "payable",
      "type": "receive"
    }
  ],
  "bytecode": "0x60a03460a057601f610ba938819003918201601f19168301916001600160401b0383118484101760a45780849260609460405283398101031260a05760428160b8565b906057604060516020840160b8565b920160b8565b608092909252600380546001600160a01b039283166001600160a01b0319918216179091555f8054929093169116179055604051610add90816100cc82396080518161072e0152f35b5f80fd5b634e487b7160e01b5f52604160045260245ffd5b51906001600160a01b038216820360a05756fe6080604052600436101561001a575b3615610018575f80fd5b005b5f3560e01c8062f714ce1461078e57806301aef3491461071357806349f59b6214610676578063572b6c05146106425780635f71a07c146106055780636c139252146105925780636f5b601e1461044e57806375eab98e146103815780638340f549146101f45780638909aa3f146101ca578063c3de8639146100e55763d4fac45d0361000e57346100e15760403660031901126100e1576100cb6100bd6108c2565b6100c56108ac565b90610a27565b5f526001602052602060405f2054604051908152f35b5f80fd5b346100e15760203660031901126100e15760043567ffffffffffffffff81116100e157366023820112156100e157806004013567ffffffffffffffff81116100e1576024820191602436918360051b0101116100e1575f5b81811061014657005b6001906101676101546109ed565b6100c56101628487896109b5565b6109d9565b5f528160205260405f20548061017f575b500161013d565b6101c49061019c61018e6109ed565b6100c561016286898b6109b5565b5f52836020525f60408120556101b66101628487896109b5565b6101be6109ed565b90610a69565b84610178565b346100e15760203660031901126100e1576004355f526001602052602060405f2054604051908152f35b6101fd366108ec565b916001600160a01b03811615610372576001600160a01b0382166102ce578234036102bf576102ba7f5548c837ab068cf56a2c2479df0882a4922fd203edb7517321831d95078c5f629360405160208101906001600160601b03198560601b1682525f603482015260288152610274604882610933565b5190205f52600160205260405f2061028d8282546109a8565b90555b604080516001600160a01b0394851681529490931660208501529183019190915281906060820190565b0390a1005b63cd41a9e360e01b5f5260045ffd5b346102bf576102db6109ed565b60405190846060523060405260601b602c526323b872dd60601b600c5260205f6064601c82875af13d1560015f5114171615610365577f5548c837ab068cf56a2c2479df0882a4922fd203edb7517321831d95078c5f62936102ba915f6060526040526103488484610a27565b5f52600160205260405f2061035e8282546109a8565b9055610290565b637939f4245f526004601cfd5b6342bcdf7f60e11b5f5260045ffd5b346100e15760803660031901126100e15761039a6108c2565b6103a26108ac565b906044359060643580151581036100e157335f52600260205260ff60405f2054161561043f57156103fc57916103d89192610a27565b5f5260016020526103ee60405f209182546109a8565b90555b602060405160018152f35b6001600160a01b038316610431575f809350809281925af161041c610969565b506103f1575b63386bf62b60e11b5f5260045ffd5b61043a92610a69565b6103f1565b63e843078760e01b5f5260045ffd5b346100e15760203660031901126100e15760043567ffffffffffffffff81116100e157366023820112156100e15780600401359067ffffffffffffffff82116100e15736602483830101116100e157335f52600260205260ff60405f2054161561043f575f5b8281106104c657602060405160018152f35b608081019081811161057e578382116100e1578201602401906104e8826108d8565b916104f5602082016108d8565b606060408301359201359384151585036100e15792936001600160a01b03918216939091169015610549579161052b9192610a27565b5f52600160205261054160405f209182546109a8565b90555b6104b4565b82156105585761054492610a69565b5f809350809281925af161056a610969565b506105445763386bf62b60e11b5f5260045ffd5b634e487b7160e01b5f52601160045260245ffd5b346100e1576105a0366108ec565b9190335f52600260205260ff60405f2054161561043f576105c18183610a27565b5f5260016020528260405f2054106105f6576105dc91610a27565b5f5260016020526105f260405f20918254610926565b9055005b631e9acf1760e31b5f5260045ffd5b346100e15760203660031901126100e1576001600160a01b036106266108c2565b165f526002602052602060ff60405f2054166040519015158152f35b346100e15760203660031901126100e157602061065d6108c2565b5f546040516001600160a01b0392831691909216148152f35b346100e15760803660031901126100e15761068f6108c2565b6044356001600160a01b03811681036100e157335f52600260205260ff60405f2054161561043f576003546106fb926106d0916001600160a01b0316610a27565b5f52600160205260405f206106e860243582546109a8565b90556003546001600160a01b0316610a27565b5f52600160205260405f206103ee60643582546109a8565b346100e15760203660031901126100e15761072c6108c2565b7f00000000000000000000000000000000000000000000000000000000000000006001600160a01b0316330361077f576001600160a01b03165f908152600260205260409020805460ff19166001179055005b631d0989ab60e31b5f5260045ffd5b346100e15760403660031901126100e1576004356107aa6108ac565b6107bb816107b66109ed565b610a27565b5f52600160205260405f205482116105f6576107d9816107b66109ed565b5f52600160205260405f206107ef838254610926565b90556001600160a01b038116610873575f8080808561080c6109ed565b5af1610816610969565b5015610422577f2717ead6b9200dd235aad468c9809ea400fe33ac69b5bfaa6d3e90fc922b6398915b6102ba61084a6109ed565b604080516001600160a01b03928316815294909116602085015283019190915281906060820190565b816108a77f2717ead6b9200dd235aad468c9809ea400fe33ac69b5bfaa6d3e90fc922b6398936108a16109ed565b84610a69565b61083f565b602435906001600160a01b03821682036100e157565b600435906001600160a01b03821682036100e157565b35906001600160a01b03821682036100e157565b60609060031901126100e1576004356001600160a01b03811681036100e157906024356001600160a01b03811681036100e1579060443590565b9190820391821161057e57565b90601f8019910116810190811067ffffffffffffffff82111761095557604052565b634e487b7160e01b5f52604160045260245ffd5b3d156109a3573d9067ffffffffffffffff82116109555760405191610998601f8201601f191660200184610933565b82523d5f602084013e565b606090565b9190820180921161057e57565b91908110156109c55760051b0190565b634e487b7160e01b5f52603260045260245ffd5b356001600160a01b03811681036100e15790565b5f546001600160a01b0316331480610a1c575b15610a1857601319360136811161057e573560601c90565b3390565b506014361015610a00565b906040519060208201926001600160601b03199060601b1683526001600160601b03199060601b16603482015260288152610a63604882610933565b51902090565b60105f604492602095829560145260345263a9059cbb60601b82525af13d1560015f5114171615610a9a575f603452565b6390b8ec185f526004601cfdfea2646970667358221220cdd23216a8b22b89d147bad23412f2dba6c9c008605890a907dca059351885e464736f6c634300081a0033",
  "linkReferences": {},
  "deployedLinkReferences": {}
}